:020000040000fa
:080000000004040000000000f0
:020000040000fa
:10080000cfa520000e7f22000e018800000000000e
:100810000c000700c0f020000100200011000700bc
:10082000000020000000e000020032000000020092
:1008300000000000200d0200000000000040da006f
:100840000000fe004440a900000020000000e0007d
:100850000300320000002000a00188004440a800ee
:100860000000060091018800800078000000eb0085
:1008700015003700e280400032a0b4009101ba00b8
:10088000e280400032a0b4009102ba00e280400051
:1008900032a0b4000002eb00472bde00f507b200e7
:1008a000602ce10004003a000059eb008301e900ec
:1008b000fdff3e00040037006128e1000100320026
:1008c0000082eb00040007001101ba000200e00002
:1008d000e8ff3a00000006003159ba008301e90040
:1008e0000c0032002159ba008301e90008003200ef
:1008f0000400e00003003a00e280400032a0b400af
:10090000f5ff370011d9ba008301e900faff3a0078
:100910008100e800e180400032a0b4000000060041
:080920000040da000000fe00b7
:020000040000fa
:04aff800ce7b00000c
:020000040000fa
:04affc007f3f000093
:020000040000fa
:100008009004000090040000900400009004000098
:100018009004000090040000900400009004000088
:100028009004000090040000900400009004000078
:100038009004000090040000900400009004000068
:020000040000fa
:020000040000fa
:101fe00002010000011000001f080000e4070000cb
:041ff000a55a0000ee
:020000040000fa
:100928000000fa0087c0bf00684060000004e000d3
:10093800170032008760a900d05280004700de000f
:10094800610060000004e0000500320060168000cd
:10095800f1fb2f00010060006016880004003700da
:1009680060168000010420000100700060168800f5
:10097800d052800000004000d0528800d052800041
:100988000000e00002003a0050012000d052880028
:100998000080fa00000006000800fa00200798000e
:1009a800310798000040eb00204798000000eb005a
:1009b800000f7800090037002e0090009040780062
:1009c8002e40900001406800204798002e009000bb
:1009d8000000e800200798001e0fe8003e00900085
:1009e8009e0f1000f4ff39002e4090000080fb009d
:1009f8000080fa00000006000800fa000040eb0042
:100a080011e8b7000000eb0010079800000037005d
:100a180065004700460207009e0090005e41900076
:100a28006082200000804000024878001e0090008c
:100a38000000e800100798009e00900000112000b8
:100a4800808f5000030036000000eb00100798006c
:100a5800efff37001e009000ea0f50002b00360011
:100a68002cc8bf000080fb00c800dd002dc8bf00f7
:100a78000080fb00008f40001e007800eb00400063
:100a88001e009000808f50004d003e001e00780030
:100a9800e80040006082200000804000104078009c
:100aa800f04f500007003a001e007800e9004000af
:100ab800608220000080400010407800e34f500022
:100ac800050032005e40900026e8b70010002000c4
:100ad800100798003a0037009e00900060822000be
:100ae800adff0700404798004e4090000004e0002a
:100af800030032000000eb001007980030003700b8
:100b080010c0b30011e8b7002d0037001e00900098
:100b1800300798003e009000e20f500014003200a9
:100b28003e009000e20f500004003e003e0090009e
:100b3800e10f500008003200210037003e0090000d
:100b4800e30f50001e0032003e009000e50f5000f9
:100b58000f0032001a0037005e409000f04f50003e
:100b6800170032000000eb0010079800140037004f
:100b78005e409000e24f5000110032005e4090004d
:100b880026e8b70010002000100798000c00370076
:100b9800de409000c0ccb30080cf50000800320087
:100ba800de409000d0ccb30080cf5000040032006b
:100bb8005e40900026e8b70010002000100798005b
:100bc80011c8bf000004e00001003a0090ff3700a0
:100bd8000080fa00000006001000fa0040079800a4
:100be8005107980062079800634f98004e009000e4
:100bf800de009000008fbe009e0078001e0090006e
:100c0800510407002007980031079800ce40900053
:100c18006e009000014878006e0090000000e80027
:100c2800600798006e4890000040e900604f980007
:100c38006e4890000004e00011003200de40900091
:100c48006e009000014878006e0090000000e800f7
:100c5800600798006e4890000040e900604f9800d7
:100c68006e4890000004e000050032001e00be003f
:100c780062004000e0804800008fbe00deff3700c1
:100c88000080fa00000006001800fa00300f9800f3
:100c98006000b80030079800410798006000b8006d
:100ca800a0408800b14088006000b800c0408800bb
:100cb800d1408800c2812000a3c0b30000ff2000fb
:100cc80001002000c4ff07006000b800700798000a
:100cd800010f980046003700fe0090000e089000b3
:100ce80019040700100f9800210f98007e0190004a
:100cf8008e099000b07f250001002000800f510070
:100d0800818f5900020036000000eb00200f980088
:100d18002e5090008080fb003e5090000080fb0029
:100d2800808040004e5090000080fb000080400012
:100d3800cf80de005007980061079800a24080002d
:100d4800b34080005e009000ee009000020040007a
:100d580083804800a0408800b14088007e01900050
:100d68008e099000f03f200001002000800f510004
:100d7800818f5900100036007e0190008e09900086
:100d8800e0ff200001002000800f5100818f5900f2
:100d980009003e003e009000ce0090005e019000e9
:100da800ee01900000004100818049003007980062
:100db8004107980008003700c0408000d1408000fb
:100dc8005e019000ee019000000041008180490022
:100dd800c0408800d14088007e0090008e089000b6
:100de80062004000e080480070079800010f9800fa
:100df8007e0190008e099000f07f25000100200000
:100e0800800f5100818f5900b3ff36003e089000d3
:100e18000000e0001d0032004081200020079800fb
:100e280080932000100798009e0090000040eb007f
:100e3800804878001e0090000000e8001007980025
:100e48000000eb00000f78000b0037002e00900028
:100e5800904078001e009000014878001e00900025
:100e68000000e800100798002e0090000000e8003d
:100e7800200798001e0fe800100120009e0f1000a8
:100e8800f2ff360030012000604088000080fa0040
:100e9800000006001600fa00608220004007980053
:100ea8004e009000604090000080fb00c800dd000c
:100eb8004e009000704090000080fb0000804000d1
:100ec80060079800e0822000300798000000eb00df
:100ed800500798000c0037005e0190003e0090001b
:100ee800904078008093200000004100014878007d
:100ef8003e0090000000e800300798005e00900077
:100f08000000e80050079800de0090006e00900096
:100f1800808f5000f0ff39000040eb001047980028
:100f28004e009000504090000080fb00200f980079
:100f3800000f2000ae089000808f5000240032007f
:100f4800100f2000ae089000808f5000080032007b
:100f5800500e2000ae089000808f50000100320033
:100f68007f0037001000200047ff07007e00370091
:100f78000000eb00604088008193200091407800d9
:100f880010c5b30080cf500077003a00919320003d
:100f98009140780050c5b30080cf500072003a00ed
:100fa800a193200091407800a0cab30080cf5000e0
:100fb8006d003a003bc9bf00e14f40006a003a00ab
:100fc800400020006040880011e1a9006600370059
:100fd80011e1a90038c9bf0030479800919320005b
:100fe80091407800214798003ac9bf0000e8b7004f
:100ff8003bc9bf0001e8b7003cc9bf0002e8b70021
:101008000040eb0003e8b7003e4090000080fb0082
:10101800100f98001e089000e20f50001f003200c9
:101028009e089000e28f500007003c001e089000c8
:101038000000e0000b0032009e089000e18f500095
:101048000b003200410037001e089000e30f5000eb
:101058001a0032009e089000e88f500022003200eb
:101068003a0037001000200007ff0700390037005a
:101078002e4090000080fb0002408000134080005a
:10108800ca0007002e4090000080fb004200dd00ef
:1010980065004000604088002e0037002e40900018
:1010a8000080fb000240800013408000fa00070027
:1010b80050002000604088002600370012c8bf009a
:1010c800e34f5000050032002e4090000080fb00e6
:1010d8000240800013408000d20107005000200029
:1010e800604088001b0037003dc9bf00604f980072
:1010f8003ec9bf00704f98003fc9bf000057980015
:1011080040c9bf001057980010002000defe0700fd
:10111800c2408000d34080007e0090008e0890007e
:10112800800f5100818f590005003a0080c0b3003c
:1011380038e9b700a0c5b30010479800050037008c
:1011480080c8b30038e9b7000200370000c0eb00e0
:10115800304798003e40900012e8b7000200370080
:1011680000c0eb0030479800604080000000e000bd
:10117800630032003342a8000040eb00004f7800c3
:101188004e009000c0409000414798004e009000eb
:10119800b04090004e009000414098004e009000f2
:1011a800ce40900031409800ce00900000cfb300b0
:1011b800d0409800604080004800de008040780001
:1011c8004e009000614098006040800080407800a8
:1011d8004e009000714098000000eb005007980006
:1011e8000d0037000060fe00de00900060822000e5
:1011f8000080400090407800414798004e409000a1
:101208001e4f68004e4090003f0007005e009000af
:101218000000e800500798005e009000e70f5000bb
:10122800f0ff36000000eb00500798000d00370073
:101238000060fe00de0090008093200000804000e7
:1012480090407800414798004e4090001e4f68003b
:101258004e4090002c0007005e0090000000e8005f
:1012680050079800614080005e009000810f500098
:10127800efff390000c1b3002300070030c0b300fe
:10128800210007001e407800734f68001e40780058
:101298001d00070033c2bf00614060000004e00089
:1012a800fcff32009e409000a0c5b30080cf5000e4
:1012b80013003a0061168000f0fb2f0000806000e8
:1012c800601688003000200050079800080037009a
:1012d80087c0bf00684060000004e00004003200de
:1012e8008760a9005e0090000000e90050079800a0
:1012f8005e0090000000e000f5ff3a000000fe00ec
:101308000080fa00000006000200fa00004f780092
:1013180033c2bf00624060000004e000fcff3a00f6
:101328001e80fb00a01188000080fa000000060063
:101338000400fa0010079800000037000060fe0063
:1013480077fd0700901180006e0060000000e0004b
:1013580003003200b0118000004f78003222a9004b
:1013680032c2bf00614060000004e00005003200a6
:10137800b0118000804078001e009000014878007d
:101388000800370085c0bf00614060000004e0002d
:10139800eaff3200204080003140800078020700d8
:1013a800e6ff37000080fa00000006000c00fa0093
:1013b8003007980042079800530798000000eb0098
:1013c800000f78002e003700ce0090005e009000dd
:1013d8005d02070010079800210798004e01900051
:1013e800de019000b07f250001002000800f510031
:1013f800818f5900020036000000eb00200798009a
:101408001e007800e50040002e41900080932000e7
:1014180000804000024878001e007800e600400086
:101428003e419000809320000080400002487800f0
:101438001e007800e70040004e4190008093200095
:1014480000804000024878001e007800e800400054
:101458005e419000809320000080400002487800a0
:101468001e007800640f40004e009000de009000df
:1014780062004000e080480040079800510798004b
:101488003e0090004200dd009e0f5000ceff3e005f
:101498000080fa00000006001800fa0030079800e3
:1014a80042079800530798000000eb00000f7800ef
:1014b800d60037000060fe001e007800e5004000fe
:1014c800809320000080400010407800204798005a
:1014d8001e017800e6004100809320000080400053
:1014e80010407800304798009e017800e78041005e
:1014f800809320000080400010407800404798000a
:101508001e027800e800420080932000008040001e
:1015180010407800504798009e027800648f42007f
:101528004e019000de019000e07f250001002000c0
:10153800800f5100818f59001e003a001e00900054
:10154800ae009000f2ff27000300200000027800a0
:1015580081027800020078008300780000016200b0
:10156800018062006102b80064079800750798005e
:101578006e009000fe009000c000dd00000020001a
:1015880060079800710798006e009000fe009000b8
:101598006112b80064079800750798006e01900002
:1015a800fe01900002007000838070001007980010
:1015b800210798004e009000de009000e00f5000d8
:1015c800e08f580024003a001e009000ae00900002
:1015d800f2ff2f000300200000027800810278004b
:1015e8000200780083007800000162000180620038
:1015f8006102b800040f9800150f98000e089000bb
:101608009e089000c000dd0000002000000f980038
:10161800110f98000e0890009e0890006112b80003
:10162800040f9800150f98000e0990009e0990006d
:1016380002007000838070002040880031408800dc
:101648000040200041002000100798002107980062
:1016580010002000704088004e019000de019000cc
:101668002000200001002000800f5100818f5900c8
:1016780029003a0026408000374080001e00900074
:10168800ae009000f20f2000030020000002780056
:10169800810278000200780083007800000162006f
:1016a800018062006102b800240f9800350f98008d
:1016b8002e089000be089000c000dd000000200049
:1016c800200f9800310f98002e089000be08900057
:1016d8006112b800240f9800350f98002e09900069
:1016e800be0990000200700083807000c000dd0019
:1016f8000000200006004000878048002040880045
:10170800314088006000b800100798002107980051
:1017180010002000704088004e019000de0190000b
:10172800f03f200001002000800f5100818f5900f8
:10173800070036004e019000de019000f0ff200007
:1017480001002000800f5100818f59000e003600e3
:101758004e019000de019000f03f250001002000be
:10176800800f5100818f590007003e001e00900035
:101778002e019000ce0090005e029000800178005b
:101788000400780061010700f00f20001e006000cf
:101798000000e00017003a004e019000de019000c2
:1017a800f03f200001002000800f5100818f590078
:1017b800070036004e019000de019000f0ff200087
:1017c80001002000800f5100818f59000900360068
:1017d8004e019000de019000f03f2500010020003e
:1017e800800f5100818f590002003e001000240034
:1017f800340107004e009000de00900062004000b7
:10180800e080480040079800510798003e0090008b
:101818004800dd009e0f500026ff3e000080fa00c1
:10182800000006000c00fa003007980042079800f4
:10183800530798000000eb00000f78002f003700d6
:101848001e0fe8004e019000de019000f03f2000de
:1018580001002000800f5100818f590007003600d9
:101868004e019000de019000f0ff200001002000f2
:10187800800f5100818f5900180036004e019000ea
:10188800de019000f03f250001002000800f51008c
:10189800818f590011003e00ce0090005e0090003c
:1018a800220424003c0107004e019000de01900054
:1018b800f03f200001002000800f5100818f590067
:1018c80006003e006000b800100798002107980045
:1018d8001e009000ae009000390007004e009000f6
:1018e800de009000024020000300200000004100bc
:1018f8008180490040079800510798003e009000f9
:101908009e0f1000ceff39000080fa00000006008c
:101918000000fa00404080005240800080017800ba
:10192800010821000000eb00f80007003000240047
:10193800e40007000080fa00000006000000fa003a
:10194800113a8000f0fb2f00008160006104200044
:1019580070052000237420008149780080497800b0
:1019680082497800616a20009140780000ceb30077
:1019780000c06000d040b300a6e6b700e16c2000cc
:101988009140780000ceb30000c060005040b30022
:10199800cee6b700113a80000004200000817000f4
:1019a800610420007005200023742000814978001c
:1019b80080497800824978000080fa00000006001b
:1019c8000800fa002007980031079800004020001e
:1019d80041002000008fbe001e0078001e0190000c
:1019e800ae0090003e02900080017800040078006c
:1019f800c600070030002400b20007006000b800ed
:101a0800008fbe009e0078001e0190002e009000fe
:101a18000080e8003e029000810178008000780094
:101a280004007800b900070030002400a500070072
:081a38000080fa000000060026
:020000040000fa
:101a40001000fa0010c0b30010e8b70000c0eb00af
:101a500012e8b700000821000100200000408800c3
:101a6000114088000140800010408000b80007004d
:101a7000100798002107980020082100010020008d
:101a80000040880011408800014080001040800024
:101a9000af000700204088003140880022408000cd
:101aa00033408000f0ff2f00f10f2000800f510025
:101ab000818f590005003a000040200001002000fd
:101ac00020408800314088001b0037006601470035
:101ad00063c0b300003f25000100200040fc070068
:101ae0000000eb00000f7800100037009e00780027
:101af000a0a4200000804000104178009e007800e3
:101b0000660047000080400010407800804f510080
:101b10000500320000402000010020002040880025
:101b200031408800040037001e0fe8001e007800d6
:101b3000e50f5000edff36000000eb00704088001c
:101b40002e4090000004e00004003a002000200035
:101b500001002000100798002107980011e1a9005a
:101b60001061a8008500a9009500a9001e00900042
:101b7000ae009000f20f2000030020000002780069
:101b80008102780002007800830078000001620082
:101b9000018062006102b800640798007507980030
:101ba0006e009000fe009000c000dd0000002000ec
:101bb00060079800710798006e009000fe0090008a
:101bc0006112b80064079800750798006e019000d4
:101bd000fe0190000200700083807000f20f200070
:101be00003002000820f5000838f58001d00320038
:101bf0002e4090000083fb00070020008600780044
:101c000000402200000ab800400f200000b0b900d8
:101c100005017800000141000040220000b8b90031
:101c200000014100820278001407980025079800ff
:101c30001e009000ae0090004008de000100200071
:101c4000700888001e009000ae00900060088800b8
:101c50000000eb00300888000000eb00500888000e
:101c600011e1a80037ff07002d43a8002d63a8004d
:101c700031e2a80040042000c01188003062a800b2
:101c80000040200090118800303820006016880045
:101c900030802b0040168800f0492200d0088800d0
:101ca0000000eb00a0088800e111200091407800be
:101cb00000c3b30000c070001ee1b7001fe1a80020
:101cc0004ffb070075fc0700fdff37000200fa001c
:101cd000000f78001e007800003b880050052000af
:101ce000303b8800a00a2000303b880061e7a80054
:101cf000000000000000000061c7bf0001c8b30081
:101d0000014060000004e000fbff3a000080fa00a0
:101d1000000006000800fa00000f78001107980084
:101d200022079800330798001e00780032e0b700c1
:101d30009e0090003e0090008008bb009e00900036
:101d40002e0090008088bb000080fa000000060092
:101d50000800fa0020079800310798002e00900034
:101d600032e0b7003e0090001000ba00000f78008b
:101d70003e0090001080ba00100798001e00be00c0
:101d80000080fa00000006000200fa00000f780050
:101d90001e007800004001000080fa0000000600ec
:101da0000800fa00100798002107980032079800f1
:101db00032c0bf000080fb00000f78001e009000c2
:101dc00032e0b7003e009000003b8800ae0090007b
:101dd0002e0090008008bb0050052000303b88009a
:101de000a00a2000303b880061e7a8000000000046
:101df0000000000061c7bf0001c8b30001406000df
:101e00000004e000fbff3a001e00780032e0b7005b
:081e10000080fa00000006004a
:020000040000fa
:101e18004a0a0000120000000200000046442d009b
:101e28004c544400000000000000000000000000c6
:101e380000150000000800004a0200000000000031
:041e48000000000096
:00000001FF
