:1000000090100400000000002411000024110000E2
:10001000241100002411000024110000241100000C
:1000200024110000241100002411000024110000FC
:1000300024110000241100002411000024110000EC
:100040002411000078410000241100002411000058
:1000500024110000241100002411000024110000CC
:1000600024110000241100002411000024110000BC
:1000700024110000241100002411000024110000AC
:10008000241100002411000024110000241100009C
:10009000241100002411000024110000241100008C
:1000A0001C35000038340000241100002411000029
:1000B000241100002411000024110000241100006C
:1000C000241100002411000024110000241100005C
:1000D000241100002411000024110000241100004C
:1000E000241100002411000024110000241100003C
:1000F000241100002411000024110000241100002C
:10010000241100002411000024110000241100001B
:10011000241100002411000024110000241100000B
:1001200024110000241100002411000024110000FB
:1001300024110000241100002411000024110000EB
:1001400024110000241100002411000024110000DB
:1001500024110000241100002411000024110000CB
:1001600024110000241100002411000024110000BB
:1001700024110000241100002411000024110000AB
:10018000241100002411000024110000241100009B
:10019000241100002411000024110000241100008B
:1001A000241100002411000024110000241100007B
:1001B000241100002411000024110000241100006B
:1001C000241100002411000024110000241100005B
:1001D000241100002411000024110000241100004B
:1001E000241100002411000024110000241100003B
:1001F000241100002411000024110000241100002B
:100208002411000024110000241100002411000012
:100218002411000024110000241100002411000002
:1002280024110000241100002411000024110000F2
:10023800241100002411000024110000784100005E
:1002480024110000241100002411000024110000D2
:1002580024110000241100002411000024110000C2
:1002680024110000241100002411000024110000B2
:1002780024110000241100002411000024110000A2
:100288002411000024110000241100002411000092
:1002980024110000241100001C350000383400002F
:1002A8002411000024110000241100002411000072
:1002B8002411000024110000241100002411000062
:1002C8002411000024110000241100002411000052
:1002D8002411000024110000241100002411000042
:1002E8002411000024110000241100002411000032
:1002F8002411000024110000241100002411000022
:100308002411000024110000241100002411000011
:100318002411000024110000241100002411000001
:1003280024110000241100002411000024110000F1
:1003380024110000241100002411000024110000E1
:1003480024110000241100002411000024110000D1
:1003580024110000241100002411000024110000C1
:1003680024110000241100002411000024110000B1
:1003780024110000241100002411000024110000A1
:100388002411000024110000241100002411000091
:100398002411000024110000241100002411000081
:1003A8002411000024110000241100002411000071
:1003B8002411000024110000241100002411000061
:1003C8002411000024110000241100002411000051
:1003D8002411000024110000241100002411000041
:1003E8002411000024110000241100002411000031
:0803F800241100002411000093
:1020000050450000444300002D50000049430000AB
:10201000323400002D410000505000003A200000F2
:1020200051440000342C00003230000032310000F6
:102030002F3900002F32000036200000313100001F
:102040003A300000303A0000303000002C560000DA
:10205000312E0000302C00005B5000004544000091
:10206000432D00004D4F00004E490000544F00002A
:10207000522D0000535A0000313600003A20000073
:10208000424C0000353700004B5D000000000000AE
:102090000000000000000000000000000000000040
:1020A0000000000000000000000000000000000030
:1020B0000000000000000000000000000000000020
:1020C0000000000000000000000000000000000010
:1020D0000000000000000000000000000000000000
:1020E00000000000000000000000000000000000F0
:1020F00000000000000000000000000000000000E0
:1021000003000000901000002D2D0000524500003B
:102110005345000052560000454400002D2D00009C
:10212000CFCE20000E7F22000E01880000000000AC
:102130000C000700203A24000100200011000700D5
:10214000000020000000E000020032000000020059
:10215000000000003A3B0200000000000040DA00EE
:102160000000FE004440A900202620000000E000FE
:102170000300320000002000A00188004440A800B5
:102180000000060091018800800078000000EB004C
:1021900015003700E280400032A0B4009101BA007F
:1021A000E280400032A0B4009102BA00E280400018
:1021B00032A0B4000002EB00472BDE00F507B200AE
:1021C000602CE10004003A000059EB008301E900B3
:1021D000FDFF3E00040037006128E10001003200ED
:1021E0000082EB00040007001101BA000200E000C9
:1021F000E8FF3A00000006003159BA008301E90007
:102200000C0032002159BA008301E90008003200B5
:102210000400E00003003A00E280400032A0B40075
:10222000F5FF370011D9BA008301E900FAFF3A003F
:102230008100E800E180400032A0B4000000060008
:1022400080290400000000000040DA000000FE00C9
:1022500095A0A90021E3A90085A0A900000006001F
:1022600007E2A9009600A9009620A9008600A9000F
:102270008620A900000006008600A9008620A9008B
:10228000E7416000C10A20009140780082CFB3008E
:1022900082C0600083C070008000FD00ACE0B70029
:1022A0008000FD0001C7B30081416000C10A200029
:1022B00091407800F2C8B30082C0600083C0700013
:1022C0008000FD00ACE0B7008000FD006801600008
:1022D0004311DE0061092000914078000104A10053
:1022E00082C070008000FD0096E0B7008000FD0015
:1022F0000008B2004700DE000040400061092000F5
:10230000914078000114A10080C0700001007800A5
:1023100096E0B7000000060008C2BF000000D10030
:10232000610060000000060006C2BF000008A300B4
:10233000FDFF3A0006C2BF000018A300FAFF3A00F2
:1023400006C2BF000028A300F7FF3A0006C2BF0084
:102350000038A300F4FF3A0006C2BF000048A30003
:10236000F1FF3A0009C2BF000068A300EEFF3A0087
:10237000000006000080FB001010880008C2BF00AB
:1023800001C8B300014060000080FB000000E900CC
:102390004F00DE000000E900000006002110880068
:1023A00030108800000006000622A8000000060089
:1023B0000602A800000006000642A8000000060071
:1023C00094E0A90011E1A90084E0A9000000060042
:1023D00084E0A900E7416000C419DD00710A200013
:1023E00091407800F2C8B30082C0600083C07000E2
:1023F0008000FD00A7E0B7008000FD0068006000DD
:102400004300DE004700DD004109200091407800D4
:102410000174A10080C070000100780094E0B70052
:10242000000006000621EF0061088800800888008F
:102430001061A900000006003008880000000600B6
:1024400031E2A90097C0A90097E0A90087C0A900C0
:1024500087E0A9000000060087C0A90087E0A90066
:10246000E7416000310B20009140780082CFB3003B
:1024700082C0600083C070008000FD00B3E0B70040
:102480008000FD0001C7B30081416000310B2000D6
:1024900091407800F2C8B30082C0600083C0700031
:1024A0008000FD00B3E0B7008000FD00680160001F
:1024B0004311DE004611DD007109200091407800D3
:1024C0000164A10082C070008000FD0097E0B700A9
:1024D0008000FD000008B2004700DE004700DD007C
:1024E00071092000914078000174A10080C0700043
:1024F0000100780097E0B7000000060032C2BF007C
:102500006100600000000600C21188008011880090
:102510009111880001003700B011800032C2BF0065
:102520000008A300FCFF3A0087C0A90000000600D5
:1025300030C2BF0066406000E64F500002003A0023
:10254000B011800000000600B0118000F00FB20052
:10255000000006006022B800060220000000D00043
:102560008180D2000482D2008582D2000000A000C7
:102570000202520083825A0003003100020242002C
:1025800083824A000000A1000603E900F3FF3A003D
:10259000000006008001EB000200370061F07900C6
:1025A0008301E800828F5100FCFF3A000000060022
:1025B0008001EB0002003700817178008301E800A0
:1025C000828F5100FCFF3A0000000600000000006E
:1025D000C1C0000081C100004001000001C3000033
:1025E000C00300008002000041C2000001C60000DC
:1025F000C00600008007000041C700000005000081
:10260000C1C5000081C400004004000001CC0000EE
:10261000C00C0000800D000041CD0000000F000044
:10262000C1CF000081CE0000400E0000000A000073
:10263000C1CA000081CB0000400B000001C90000AE
:10264000C00900008008000041C8000001D8000057
:10265000C01800008019000041D90000001B0000D4
:10266000C1DB000081DA0000401A0000001E0000FB
:10267000C1DE000081DF0000401F000001DD00001E
:10268000C01D0000801C000041DC000000140000A0
:10269000C1D4000081D500004015000001D7000022
:1026A000C01700008016000041D6000001D20000D3
:1026B000C01200008013000041D300000011000090
:1026C000C1D1000081D000004010000001F00000E6
:1026D000C03000008031000041F1000000330000F4
:1026E000C1F3000081F2000040320000003600001B
:1026F000C1F6000081F700004037000001F500003E
:10270000C03500008034000041F40000003C0000AF
:10271000C1FC000081FD0000403D000001FF000001
:10272000C03F0000803E000041FE000001FA0000B2
:10273000C03A0000803B000041FB0000003900006F
:10274000C1F9000081F800004038000000280000B6
:10275000C1E8000081E900004029000001EB000011
:10276000C02B0000802A000041EA000001EE0000BA
:10277000C02E0000802F000041EF0000002D00005F
:10278000C1ED000081EC0000402C000001E40000DD
:10279000C02400008025000041E500000027000063
:1027A000C1E7000081E60000402600000022000092
:1027B000C1E2000081E300004023000001E10000CD
:1027C000C02100008020000041E0000001A00000C6
:1027D000C06000008061000041A1000000630000B3
:1027E000C1A3000081A2000040620000006600005A
:1027F000C1A6000081A700004067000001A50000FD
:10280000C06500008064000041A40000006C00006E
:10281000C1AC000081AD0000406D000001AF0000C0
:10282000C06F0000806E000041AE000001AA0000F1
:10283000C06A0000806B000041AB0000006900002E
:10284000C1A9000081A800004068000000780000D5
:10285000C1B8000081B900004079000001BB000050
:10286000C07B0000807A000041BA000001BE000079
:10287000C07E0000807F000041BF0000007D00009E
:10288000C1BD000081BC0000407C000001B400001C
:10289000C07400008075000041B5000000770000A2
:1028A000C1B7000081B60000407600000072000051
:1028B000C1B2000081B300004073000001B100000C
:1028C000C07100008070000041B0000000500000A6
:1028D000C190000081910000405100000193000070
:1028E000C053000080520000419200000196000099
:1028F000C0560000805700004197000000550000BE
:10290000C19500008194000040540000019C00002B
:10291000C05C0000805D0000419D0000005F000081
:10292000C19F0000819E0000405E0000005A000030
:10293000C19A0000819B0000405B000001990000EB
:10294000C059000080580000419800000188000034
:10295000C04800008049000041890000004B000091
:10296000C18B0000818A0000404A0000004E000038
:10297000C18E0000818F0000404F0000018D0000DB
:10298000C04D0000804C0000418C0000004400005D
:10299000C1840000818500004045000001870000DF
:1029A000C047000080460000418600000182000010
:1029B000C04200008043000041830000004100004D
:1029C000C18100008180000040400000FFFF000046
:1029D000FFFF0000FF0000000100000003000000F6
:1029E00005000000040000000700000006010000D0
:1029F00001010000000100000301000002010000CD
:102A000005040000060400000700000000000000AC
:102A100002010000060200000002000002050000A2
:102A20000005000003050000020500000505000088
:102A30000405000001020000030200000101000083
:102A4000070100000405000007050000060600005D
:102A5000010600000006000003060000020300005B
:102A60000303000005030000070400000104000048
:102A7000030300000403000006040000000400003B
:102A80000204000004030000020300000100000033
:102A90000000FA0040AE20000080FA0000000600AE
:102AA0000000FA0060AF20000080FA00000006007D
:102AB0000000FA00A0B2200092012000F10F2000D7
:102AC000BBFE070030B4200092012000F10F20006F
:102AD000B7FE0700C0B5200092012000F10F2000D2
:102AE000B3FE0700420020008000EB00D0B72000BA
:102AF000AFFE0700420020008000EB0050B720002E
:102B0000ABFE0700420020008000EB0090B72000E1
:102B1000A7FE07000080FA00000006000000FA008F
:102B200042AC20006000B8000089BE0042AC20002A
:102B30006000B8002001980031019800C2AC20006C
:102B40006000B8000089BE00C2AC20006000B80080
:102B5000200198003101980042AD20006000B800CB
:102B60000089BE0042AD20006000B800200198003E
:102B700031019800C2AD20006000B8000089BE009D
:102B8000C2AD20006000B80020019800310198001B
:102B90000080FA00000006000200FA00C4FF0700EF
:102BA00040AE200022012000F10F200080FE07002F
:102BB0000040EB00F3EAB7000040EB00F4EAB70096
:102BC0000040EB00F5EAB7000000EB00000F7800D2
:102BD000080037001E0078006600B9008000780009
:102BE00060B0200080804000F00F20008008780056
:102BF0001E0FE800500020009E0F1000F5FF34006B
:102C00000080FA00000006000600FA00C8E2A900F1
:102C10000000EB0020079800030037002E00900012
:102C20000000E80020079800AE009000703E2000F1
:102C3000808F5000F9FF3400CCE2A9000000EB00C7
:102C400020079800030037002E0090000000E800E5
:102C500020079800AE009000703E2000808F50004A
:102C6000F9FF3400CCE2A8000000EB002007980038
:102C7000030037002E0090000000E80020079800B5
:102C8000AE009000703E2000808F5000F9FF3400AD
:102C90000040EB00004F78000000EB0010079800A8
:102CA0001100370027000700004F78001E04E000E5
:102CB000100032000000EB002007980003003700EE
:102CC0002E0090000000E80020079800AE00900061
:102CD000703E2000808F5000F9FF34001E009000ED
:102CE0000000E800100798001E009000E40F50005C
:102CF000ECFF34001E0090000000E0000E003400E5
:102D00001E04E0000C0032000000EB0020079800D9
:102D1000030037002E0090000000E8002007980014
:102D2000AE009000F0702200808F5000F9FF340058
:102D300004000700004F78001E80FB000080FA00AE
:102D4000000006000C00FA0066004700614E2900F2
:102D500004000900315878005000B1000040EB0039
:102D6000504798000000EB00000F7800310037005A
:102D70001E0078006600B90080007800A0CB20001B
:102D800000804000100798001E009000104078005E
:102D90000080FB000000D1006740600040479800C1
:102DA00066004700540020008001780082C0B30014
:102DB000CE4090000040EB00B70F07000004E00099
:102DC00007003A00110020001E0078000008DD0016
:102DD000804078005E40900000C07000504798002E
:102DE0001E0090000000E8005400200080017800E0
:102DF00082C1B300CE4090000040EB00A60F070058
:102E00000004E00007003A00110020001E007800D6
:102E10000008DD00804078005E40900000C0700037
:102E2000504798001E0FE8001E009000660040000A
:102E3000100798001E007800E20F5000CCFF36000B
:102E40005E4090000080FB000080FA000000060059
:102E50002000FA00600F9800710F98006E08900033
:102E6000104078000080FB000000D1006740600047
:102E7000404798007E089000E10F500005003A009E
:102E8000A0B22000000F780040AE2000100798008C
:102E90000F0037007E089000E20F500005003A0056
:102EA00030B42000000F780090AE2000100798008A
:102EB000070037007E089000E30F50006A013A00D7
:102EC000C0B52000000F7800E0AE20001007980089
:102ED0006E0890008000E8006800470004000900C8
:102EE000315878005000B1005100B1006D0047002A
:102EF000520020008000EB00ADFD07006D00470090
:102F000054C0B300800178000041EB00CE40900037
:102F10000040EB005E100700504798005E409000B4
:102F20000004E00019003A00FE08900050B72000AD
:102F3000808040000040EB0080487800FE08900050
:102F400090B72000808040000040EB00804878006F
:102F5000FE089000D0B720000080400010407800AC
:102F6000E14F4000400132007E099000D0B72000C0
:102F700000004100104078008040E800D0B72000F9
:102F8000000041000148780037013700FE0890003A
:102F9000D0B72000808040000040EB0080487800DF
:102FA0006D004700904078006800470010407800AE
:102FB00080C060006D004700014878006D00470048
:102FC00090409000680047001040900080C0600072
:102FD0006D004700114098006D004700A040900030
:102FE000680047002040900080C060006D004700EE
:102FF000214098006D004700B040900068004700F5
:103000003040900080C060006D0047003140980063
:103010006D004700C04090006800470040409000AD
:1030200080C060006D00470041409800FE0890009D
:1030300050B7200000804000104078000080FB0066
:103040006500B9001E004000800078006D00470058
:1030500004000900B05878005100B1005000B100E0
:103060007E09900050B72000000041001040780019
:103070008040E80050B7200000004100014878007F
:10308000FE08900050B720000080400010407800FB
:10309000E44F5000F4003600720047005200200058
:1030A0008000EB0042FD070077004700520020003F
:1030B000F10F20003EFD07000000EB0030079800F4
:1030C0005D00370072004700104178003E0090001C
:1030D0006500B9001E00400010407800804071007B
:1030E00072004700014878007200470010419000CC
:1030F0003E0090006500B9001E00400010409000A6
:103100008040710072004700114098007200470033
:10311000204190003E0090006500B9001E00400074
:1031200020409000804071007200470021409800CC
:1031300072004700304190003E0090006500B900E9
:103140001E00400030409000804071007200470037
:103150003140980072004700404190003E009000CE
:103160006500B9001E0040004040900080407100A2
:1031700072004700414098007700470010417800F6
:103180003E0090006500B9001E004000104078002D
:1031900080406100770047000148780077004700D1
:1031A000104190003E0090006500B9001E004000F4
:1031B0001040900080406100770047001140980067
:1031C00077004700204190003E0090006500B90064
:1031D0001E004000204090008040610077004700C2
:1031E0002140980077004700304190003E00900059
:1031F0006500B9001E004000304090008040610032
:103200007700470031409800770047004041900028
:103210003E0090006500B9001E0040004040900054
:103220008040610077004700414098003E009000D8
:103230000000E800300798003E009000E40F5000C6
:10324000A0FF3400FE08900090B7200000804000EE
:10325000104078000004E0000A003A00FE089000E8
:1032600090B720008080400010C0B30080487800F4
:103270006D00470052002000F10F2000CCFC070039
:1032800006003700ED0047001E0090000400090012
:10329000B05878005100B1005000B1000000EB00C0
:1032A0003007980018003700BE019000BE00900063
:1032B0006D00470061417800BE0090007200470039
:1032C0000080400010407800804061006D004700A1
:1032D00081717800BE019000BE0090006D00470033
:1032E00061417800BE00900077004700614078009F
:1032F000804071006D004700817178003E009000B1
:103300000000E800300798003E009000E40F5000F5
:10331000E5FF36001E009000ED00470004000900A4
:10332000315878005000B1005100B1000000EB00AE
:1033300030079800300037003E0090006500B9006B
:103340001E0140003E0090006500B9001E004000D4
:103350006500400010407800004978003E00900071
:103360006500B9001E0140003E0090006500B900F4
:103370001E00400065004000104090001041980081
:103380003E0090006500B9001E0140003E00900024
:103390006500B9001E00400065004000204090001C
:1033A000204198003E0090006500B9001E014000D9
:1033B0003E0090006500B9001E004000650040001E
:1033C00030409000304198003E0090006500B90008
:1033D0001E0140003E0090006500B9001E00400044
:1033E0006500400040409000404198003E00900041
:1033F0000000E800300798003E009000E30F500006
:10340000CDFF3400FE08900050B7200080804000BF
:1034100040C0B300804878001E007800F4004000EF
:103420000040EB00804878001E007800F400400067
:103430000040EB00904098001E007800F40040002F
:103440000040EB00A04098001E007800F40040000F
:103450000040EB00B04098001E007800F4004000EF
:103460000040EB00C04098000080FA000000060019
:103470001000FA0012130700300798004107980067
:10348000B2558000C35580003E009000CE009000F1
:1034900002015000838158007000200001002000CC
:1034A000800F5100818F59004E0036003E00900081
:1034B000CE009000B0558800C1558800A0CB2000F8
:1034C0001007980010002000000F78003000200046
:1034D000200798000000EB00500798000E0037000E
:1034E0001E00900010407800E14F40000E003200B6
:1034F0009E0078001E00900055FE07001E00900000
:1035000066004000100798001E0FE8005E00900063
:103510000000E80050079800DE0090002E009000A8
:10352000808F5000EEFF35007ECBBF008040EB0067
:10353000614F9800F44F50000200360010C0B300F5
:10354000604F9800EE48900061C1600051AF2000CC
:1035500091407800E0CFB30000C0600002407000EE
:10356000F5EAB7007FCBBF008040EB00514F9800D9
:10357000F44F50000200360010C0B300504F9800C6
:10358000DE48900061C060000041400051AF200063
:1035900091407800D0CFB30000C0600002407000BE
:1035A000F5EAB70080CBBF008040EB00414F9800A8
:1035B000F44F50000200360010C0B300404F980096
:1035C000CE48900061C060004201DD0051AF200094
:1035D00091407800B0CFB30000C06000024070009E
:1035E000F5EAB7000080FA00000006000600FA00C5
:1035F000200798002E00900061AF20000E00090007
:10360000B0587800F000B100A0CB2000000F780087
:103610001E007800104078000080FB000000D10000
:1036200067406000304798002E0090005400200052
:103630008001780082C0B300BE4090000040EB00E3
:10364000950D0700204798002E4090000004E000F0
:1036500007003A007ECBBF00E14F40000600320079
:103660007ECBBF000040E8007EEBB70002003700D1
:103670000040EB007EEBB70000CC2000000F78008C
:103680001E007800104078000080FB000000D10090
:1036900067406000304798002E00900065004000B1
:1036A000540020008001780082C0B300BE4090002A
:1036B0000040EB00780D0700204798002E40900056
:1036C0000004E00007003A007FCBBF00E14F40005C
:1036D000060032007FCBBF000040E8007FEBB70060
:1036E000020037000040EB007FEBB70060CC200009
:1036F000000F78001E007800104078000080FB006A
:103700000000D10067406000304798002E00900014
:103710006A004000540020008001780082C0B3009D
:10372000BE4090000040EB005B0D07002047980072
:103730002E4090000004E00007003A0080CBBF005C
:10374000E14F40000600320080CBBF000040E8009F
:1037500080EBB700020037000040EB0080EBB700C1
:103760000080FA00000006000C00FA006047980094
:1037700071479800024F9800530798000000EB0033
:10378000100798000E4890000080FB00E7006000E2
:10379000100020000100DD00004F780065004700A8
:1037A000800178007E419000EE4090000040EB00E8
:1037B0008B0F0700E14F500011003A005E4090006F
:1037C0001E406000404798005E009000E10F5000EE
:1037D00006003A004E4090000004E000080032006D
:1037E0001000200010079800050037004E409000A0
:1037F0000004E00002003A001000200010079800CA
:103800001E0090000080FA00000006000000FA0090
:103810000000EB000080FA00000006000000FA0043
:103820000000EB000080FA00000006000000FA0033
:103830000000EB000080FA00000006000000FA0023
:103840000000EB000080FA00000006000000FA0013
:103850000000EB000080FA00000006000000FA0003
:103860000000EB000080FA00000006004600FA00AD
:10387000131207004007980051079800D2558000A6
:10388000E35580004E009000DE00900002015000E1
:1038900083815800E000200001002000800F5100CB
:1038A000818F5900110236004E009000DE0090001A
:1038B000D0558800E1558800F0FF2F00010020005E
:1038C000100F9800210F98006000B800300F98008A
:1038D000410F9800F0FF2F0001002000500F9800CA
:1038E000610F98006000B800700F980001179800F1
:1038F000F58AA900F5AAA900C4FF0700000F9800E7
:10390000CAFF0700700798008040EB0051679800DD
:103910000E0890000000E0000200320012C0B30068
:1039200052679800DE61900061C061004401DD00D3
:1039300051AF200091407800F0CEB30000C060008D
:1039400002407000F5EAB7006000B8002007980058
:10395000310798000E0890000000E00004003A00D3
:103960001000200001002000200798003107980077
:1039700040AC2000B000900020009000000040000B
:103980008180480042AC200020019800310198005D
:1039900040AC20001000BE00E00F5000E08F580047
:1039A00007003D0040AC2000B000900020009000D7
:1039B0000000A00042AC20002001980031019800D6
:1039C00040AC20001000BE00000040008180480094
:1039D00042AC20000089BE0040AC20001001BE00B7
:1039E0002E009000BE0090000000710081807100E8
:1039F00042AC20000089BE006000B800200798009B
:103A0000310798007E0090000000E00004003A00BA
:103A100010002000010020002007980031079800C6
:103A2000C0AC2000B00090002000900000004000DA
:103A300081804800C2AC200020019800310198002C
:103A4000C0AC20001000BE00E00F5000E08F580016
:103A500007003D00C0AC2000B000900020009000A6
:103A60000000A000C2AC20002001980031019800A5
:103A7000C0AC20001000BE00000040008180480063
:103A8000C2AC20000089BE00C0AC20001001BE0006
:103A90002E009000BE009000000071008180710037
:103AA000C2AC20000089BE000000EB006007980057
:103AB00040AC20001000BE001E099000AE0990002E
:103AC000000278008102780002007800830078000C
:103AD00000016200018062006102B80034179800A2
:103AE000451798003E109000CE109000C000DD00F9
:103AF0000000200030179800411798003E109000F9
:103B0000CE1090006112B800341798004517980045
:103B10003E119000CE119000020070008380700072
:103B2000E00F5000E08F580065003A0040AC2000E4
:103B3000B0009000200090003E099000CE09900057
:103B4000000278008102780002007800830078008B
:103B500000016200018062006102B8005417980001
:103B6000651798005E109000EE109000C000DD0018
:103B70000000200050179800611798005E10900018
:103B8000EE1090006112B800541798006517980065
:103B90005E119000EE1190000200700083807000B2
:103BA000E00F5000E08F580045003A00C0AC200004
:103BB0001000BE005E099000EE099000000278003F
:103BC0008102780002007800830078000001620022
:103BD000018062006102B80074179800051F980008
:103BE0007E1090008E189000C000DD0000002000C4
:103BF00070179800011F98007E1090008E1890009A
:103C00006112B80074179800051F98007E1190008B
:103C10008E19900002007000838070005E09900091
:103C2000EE099000820F5000838F5800240032006C
:103C3000C0AC2000B0009000200090007E099000F1
:103C40008E11900000027800810278000200780056
:103C50008300780000016200018062006102B80008
:103C6000141F9800251F98001E189000AE18900091
:103C7000C000DD0000002000101F9800211F9800E8
:103C80001E189000AE1890006112B800141F980022
:103C9000251F98001E199000AE19900002007000B8
:103CA000838070007E0990008E119000820F50007A
:103CB000838F580002003200100020006007980037
:103CC0008041EB00436798006E0090000000E00028
:103CD0000200320014C0B30044679800CE62900026
:103CE00061C062004501DD0051AF200091407800C5
:103CF000F0CDB30000C0600002407000F5EAB700EC
:103D0000F5CAA900F5EAA900CCFE0700000F98004B
:103D1000D2FE0700700798000040EB003067980063
:103D20000E0890000000E0000200320011C0B30055
:103D3000316798003E619000614061004601DD00FE
:103D400051AF200091407800F0CBB30000C060007C
:103D500002407000F5EAB7006000B800008FBE00B6
:103D60000E0890000000E00003003A001000200060
:103D700001002000008FBE0040AD2000B000900088
:103D800020009000000040008180480042AD2000EB
:103D9000200198003101980040AD20001000BE00C5
:103DA000E00F5000E08F580007003D0040AD2000BC
:103DB000B0009000200090000000A00042AD200064
:103DC000200198003101980040AD20001000BE0095
:103DD000000040008180480042AD20000089BE0004
:103DE00040AD20001000BE003E027000AE827000A8
:103DF0000400BE0042AD20000089BE006000B80093
:103E0000008FBE000E0890000000E00003003A00A2
:103E10001000200001002000008FBE00C0AD200077
:103E2000B000900020009000000040008180480019
:103E3000C2AD20002001980031019800C0AD2000E3
:103E40001000BE00E00F5000E08F580007003D005A
:103E5000C0AD2000B0009000200090000000A00045
:103E6000C2AD20002001980031019800C0AD2000B3
:103E70001000BE000000400081804800C2AD20005C
:103E80000089BE00C0AD20001000BE003E017000E1
:103E9000AE8170000200BE00C2AD20000089BE00ED
:103EA0000000EB006007980040AD20001000BE004D
:103EB0001E099000AE09900000027800810278008F
:103EC0000200780083007800000162000180620037
:103ED0006102B800341F9800451F98003E189000FA
:103EE000CE189000C000DD0000002000301F9800B8
:103EF000411F98003E189000CE1890006112B80043
:103F0000341F9800451F98003E199000CE1990006C
:103F10000200700083807000E00F5000E08F5800B6
:103F200065003A0040AD2000B000900020009000F5
:103F30003E099000CE0990000002780081027800CE
:103F400002007800830078000001620001806200B6
:103F50006102B800541F9800651F98005E18900019
:103F6000EE189000C000DD0000002000501F9800F7
:103F7000611F98005E189000EE1890006112B80062
:103F8000541F9800651F98005E199000EE1990006C
:103F90000200700083807000E00F5000E08F580036
:103FA00045003A00C0AD20001000BE005E09900040
:103FB000EE0990000002780081027800020078008B
:103FC0008300780000016200018062006102B80095
:103FD000741F9800052798007E1890008E2090008E
:103FE000C000DD0000002000701F9800012798002D
:103FF0007E1890008E2090006112B800741F980007
:10400000052798007E1990008E2190000200700014
:10401000838070005E099000EE099000820F5000CE
:10402000838F580024003200C0AD2000B000900003
:10403000200090007E0990008E1190000002780010
:10404000810278000200780083007800000162009D
:10405000018062006102B8001427980025279800AB
:104060001E209000AE209000C000DD000000200067
:1040700010279800212798001E209000AE20900065
:104080006112B80014279800252798001E2190007F
:10409000AE21900002007000838070007E099000C5
:1040A0008E119000820F5000838F58000200320062
:1040B00010002000600798008041EB002367980003
:1040C0006E0090000000E0000200320014C0B30057
:1040D00024679800AE629000C728DD00F5CABF00D3
:1040E0000074A10001407000F5EAB7000080FA00FA
:1040F000000006001800FA0068004700F2002000E7
:10410000F10F20002AF90700ED0F070020079800A3
:1041100031079800F2558000035680002E00900071
:10412000BE0090000201500083815800401F200013
:1041300001002000800F5100818F59002B003600B4
:10414000E0C2B300004F7800C2CABF000080FB008D
:1041500080004000B04E290061417800224798005D
:10416000C2CABF000080FB00000040008000E800E1
:10417000B04E290061417800124798002E4090000F
:104180008081FB002E4090008080FB00680047008B
:104190000080400010407800004178001E409000F0
:1041A0008080FB00100020000100DD0000C0EA005C
:1041B00000406100804078006800470000804100B6
:1041C000014878006800470008FD0700C2CABF0028
:1041D0000040E800C2EAB700C2CABF009E4F5000CC
:1041E000020039000040EB00C2EAB7000080FA008C
:1041F000000006000400FA00000F78002147980034
:104200002E4090000080FB004300DE000080FB0099
:104210001E0F40001E00780010407800004178001A
:104220002E4090000080FB00E7006000100020009E
:104230000100DD0000407100804078001E00780021
:10424000014878000080FA00000006000400FA002F
:10425000000F7800214798002E4090000080FB005E
:104260004300DE000080FB001E0F40001E007800AF
:1042700010407800004178002E4090000080FB0044
:10428000E7006000100020000100DD0000C0EA002F
:1042900000406100804078001E00780001487800EE
:1042A0000080FA00000006000600FA00000F780007
:1042B000214798002E4090000080FB004300DE0064
:1042C0000080FB001E0F40001E00780010407800A8
:1042D0008080FB002E4090000080FB0067006000A3
:1042E0000088DE00610060000004E000030032008E
:1042F0001000200020079800020037000000EB00AB
:10430000200798002E0090000080FA0000000600B0
:104310000600FA000000EB002007980016003700A6
:104320002E0090007A00B90080007800E0C12000E3
:1043300000804000000F78000000EB00100798009C
:10434000070037009E0078000040EB0080487800AE
:104350001E0FE8001E0090000000E8001007980003
:104360001E009000F90F5000F6FF36002E0090005E
:104370000000E800200798002E009000E30F500096
:10438000E7FF3400E0C12000820620008000EB003F
:1043900087F80700A0C120008040EB0001487800AA
:1043A0000000E8008040EB00014878000000E800D1
:1043B0008040EB00014878000000E8008040EB00FE
:1043C000014878000080FA00000006000400FA00AE
:1043D000204798000000EB00000F78000B0037002A
:1043E0002E4090000080FB001E0178007A00B9008A
:1043F00002004000E4004000E0C120008080400056
:104400000040EB00804878001E0FE8001E00780096
:10441000EF0F5000F2FF36000080FA0000000600A7
:104420000800FA0040479800514798000000EB0050
:10443000100798004E4090000080FB007A00B90001
:1044400080007800E0C12000008F40001E0078004E
:104450009040900070C7B30080CF50000B003E002A
:104460001E007800A040900070C7B30080CF5000BD
:1044700006003E001E007800904090001E0078006C
:104480002040900080CF500009003A009E00780044
:104490000040EB00904098009E0078000040EB0048
:1044A000A04098001E009000300798002F003700B1
:1044B0001E007800904090001E0078002040900080
:1044C00080CF500009003A009E0078000040EB00C9
:1044D000904098009E0078000040EB00A0409800BB
:1044E0001E01900032079800200037001E0078005F
:1044F000904090001E017800640041006AFF0700B0
:10450000804078005E40900080CF50000E003A005E
:104510001E0090000000E800100798001E007800C0
:10452000104090008040E8001E0078001140980084
:104530001E0078009040900070C7B30080CF5000FC
:1045400006003E00DAFF37009E00900000002800C1
:104550008080400031079800040037009E007800FA
:104560000040EB0090409800D1FF37003E009000E3
:104570000080FA00000006000400FA00000F780036
:10458000214798001E007800104078008080FB00D2
:104590002E4090000080FB0080804000F00F200043
:1045A000808F5000040034009E00780000C0EB00B3
:1045B00080487800060037001E00780090407800A0
:1045C0002E40900080C040001E0078000148780016
:1045D0000080FA00000006000400FA00204798005E
:1045E0002E4090000080FB007A00B9008080E80037
:1045F000E0C1200000804000104178002E40900073
:104600000080FB007A00B90080007800F0C1200033
:104610000080400010407800804F510010003900A9
:104620002E4090000080FB007A00B9008080E800F6
:10463000E0C1200000804000104178002E40900032
:104640000080FB007A00B90080007800F0C12000F3
:104650000080400010407800004F510002003700F9
:1046600000C0EB00004F78002E4090000080FB005F
:104670007A00B900F6004000F0C120000080400040
:104680009040780080CCB30080CF500003003E0003
:1046900030C7B3009E4F10000A0036002E40900035
:1046A0000080FB007A00B900F6004000F0C1200055
:1046B000808040000040EB00804878002E40900051
:1046C0000E0007000080FA00000006000200FA0059
:1046D0000040EB00004F7800030037001E407800D8
:1046E000BDFF07001E4FE80030C0B3009E4F100012
:1046F000FAFF36000080FA00000006000C00FA0005
:10470000004F98000E4890000080FB007A00B9002E
:1047100080007800E0C12000008040001007980071
:104720000040EB00604798003E0137001E009000FB
:10473000904090001E0090002040900080CF5000DC
:104740003B0132001E009000605090000080FB0092
:10475000500798005E009000E30F5000990032006F
:10476000DE009000E38F50000A003C005E009000E5
:10477000E10F500028003200DE009000E18F500071
:1047800039003C005E0090000000E0000E003200A6
:104790001E01370020082000DE009000808F5000AE
:1047A000F900320030082000DE009000808F5000B9
:1047B000D400320010082000DE009000808F5000EE
:1047C000BC0032001101370011C0B3000E48900048
:1047D00013FF070020079800AE009000F00F2000A4
:1047E000008060000000E000040032009E009000A5
:1047F00010C0B300E0509800070137002E00900071
:104800000000E00004013D009E00900010C8B300CD
:10481000E05098000001370011C0B3000E4890002E
:10482000FFFE0700200798002E0090000000E00027
:10483000F9003D009E00900010C0B3008058980021
:104840009E0090000040EB00C05098009E00900039
:104850000040EB00D05098009E00900020C0B300B4
:10486000E0509800EC0037008040EB000E489000CC
:10487000EBFE0700200798001E009000D05090002B
:1048800070C7B30080CF500022003E001E00900091
:10489000505090000081FB00AE009000F00F20000F
:1048A000008060008000410070072000808F500071
:1048B000180036001E009000505090008040780094
:1048C00080C7B30001405000004F78001E009000E8
:1048D000405090008080FB001E80FB0080804000E4
:1048E000B0032000808F50000A003C001E009000A2
:1048F000905890001E0090000058900080C040002A
:104900001E009000115898009E0090000040EB009F
:10491000805898002E009000804078001E00900083
:104920007400400014FF07002E00900080407800C3
:104930001E009000750040000FFF07001E00900051
:10494000C0509000B0C3B30080CF500004003600C8
:104950009E00900010C8B300E0509800AE003700F1
:104960001E009000D050900070C7B30080CF500060
:104970000A0036001E009000905890001E00900023
:104980000058900080C040001E0090001158980010
:104990009E0090000040EB00805898002E00900090
:1049A0000000E0009C003D009E00900030C0B3007D
:1049B000E05098009E0090000040EB00C05098002E
:1049C0009500370011C0B3000E48900094FE070018
:1049D000200798002E009000804078001E00900074
:1049E00074004000E4FE07002E0090008040780034
:1049F0001E00900075004000DFFE07001E009000C2
:104A0000D050900070C7B30080CF50000A0036002D
:104A10001E009000905890001E00900000589000DA
:104A200080C040001E009000115898009E00900029
:104A30000040EB00805898001E009000C05090008D
:104A4000B0C3B30080CF50000B0036001E009000B2
:104A5000905890001E0090000058900080C04000C8
:104A60001E009000115898009E00900010C0B300E6
:104A7000E0509800680037002E0090000000E00031
:104A800065003D001E009000005890008040E80046
:104A90001E009000015898009E00900020C0B300B6
:104AA000E05098009E0090000040EB00C05098003D
:104AB000590037008040EB000E48900058FE070078
:104AC000200798002E0090000000E00052003D00FA
:104AD0009E0090000040EB00805898009E009000DF
:104AE0000040EB00C05098009E0090000040EB009A
:104AF000D05098009E00900030C8B300E05098005D
:104B00004500370011C0B3000E48900044FE070076
:104B1000200798002E009000804078001E00900032
:104B20007400400094FE07002E0090008040780042
:104B30001E009000750040008FFE07001E009000D0
:104B4000C050900040CBB30080CF5000040036002E
:104B50009E00900010C0B300E05098002E00370077
:104B60002E0090000000E0002B003D009E00900011
:104B700020C8B300E05098009E0090000040EB0079
:104B8000C0509800240037008040EB000E48900091
:104B900023FE0700200798002E0090008040780038
:104BA0001E0090007400400073FE07002E0090006D
:104BB000804078001E009000750040006EFE0700E7
:104BC0001E009000C0509000C0C3B30080CF5000C2
:104BD000040036009E00900010C8B300E05098001A
:104BE0000D0037002E0090000000E0000A003D009C
:104BF0009E00900030C8B300E05098009E009000E6
:104C00000040EB00C0509800030037009E00900069
:104C10000040EB00E05098006E4090000040E8003B
:104C2000604798006E409000E14F4000BFFE3A00A0
:104C30000080FA00000006000400FA00F3FA070002
:104C40008040EB0031479800E10F500002003A002D
:104C500010C0B30030479800BE4090000040EB0009
:104C600020000700EDFA07008040EB002147980084
:104C7000E10F500002003A0010C0B3002047980036
:104C8000AE40900010C0B30016000700EBFA07001A
:104C90008040EB0011479800E10F500002003A00FD
:104CA00010C0B300104798009E40900020C0B30091
:104CB0000C000700E5FA07008040EB00014F780088
:104CC000E10F500002003A0010C0B300004F78001E
:104CD0009E40780030C0B300020007000080FA0058
:104CE000000006000400FA002047980031479800B1
:104CF0002E4090000080FB007A00B9008000780010
:104D0000E0C12000008F40001E007800904090001D
:104D100070C7B30080CF50000B003E001E0078002B
:104D2000A040900070C7B30080CF500006003E0046
:104D30001E007800904090001E00780020409000F7
:104D400080CF500006003A009E0078000040EB0043
:104D5000904098009E0078000040EB00A040980032
:104D60003E4090000004E000060032001E00780083
:104D7000A04090001E017800640041001DFD070066
:104D8000050037001E007800A04090001E0178004A
:104D9000640041002DFD07001E00780020409000B7
:104DA0008040E8001E007800214098001E00780036
:104DB000A040900070C7B30080CF500003003600C1
:104DC0009E0078000040EB00A04098000080FA00B0
:104DD000000006000600FA002047980031479800BE
:104DE000220798002E009000104F78002E4090006F
:104DF0000080FB007A00B900F8004000F0C12000FC
:104E000000804000104078008080FB001E80FB0086
:104E10006F00600000804000EF0F5000030034007E
:104E20001E4078006F4F7000080037002E40900041
:104E30000080FB007A00B900F8004000F0C12000BB
:104E400000804000104078001E4F40003E4090001F
:104E50000080FB007A00B900F8004000F0C120009B
:104E600000804000104078008080FB001E80FB0026
:104E70004400DE000080FB0000804000EF0F500087
:104E80000300340000CFB3001E4F70000D00370048
:104E90003E4090000080FB007A00B900F80040001E
:104EA000F0C1200000804000104078000080FB002E
:104EB0004400DD00804078001E40780000C04000C3
:104EC000004F78002E0090001E4878000080FA0005
:104ED000000006000200FA000040EB00004F7800DE
:104EE000080037001E80FB007A00B900F80040007F
:104EF000F0C12000808040000040EB008048780036
:104F00001E4FE80030C0B3009E4F1000F5FF360082
:104F10000080FA00000006000200FA00004F78004E
:104F200086CCBF009E4F5000040039000040EB00CB
:104F300086ECB70040FF0700E4FD07000080FA00A0
:104F4000000006000000FA00F1FC07000080FA00F3
:104F5000000006000200FA0086CCBF00E14F4000CE
:104F60000300320086CCBF000040E80086ECB700AA
:104F70000000EB00000F7800150037001E007800DD
:104F80007A00B900F6004000F0C120000080400027
:104F900010407800E14F40000C0032001E01780004
:104FA0007A10B900F6004000F0C1200000804000F7
:104FB000104078008041E8007A10B900F600400007
:104FC000F0C1200000804000034878001E0FE80078
:104FD000300020009E0F1000E8FF34000080FA002F
:104FE000000006000A00FA004047980031079800C8
:104FF0000040EB00204798004E4090000004E00085
:10500000060032004E409000E24F50000300320094
:105010000000EB00400798006C0037003E00900055
:105020000000E0000D0032004E4090008080FB0048
:10503000A0C12000808040000040EB008048780044
:105040004E4090000080FB008000E800A0C12000DE
:10505000808040000040EB00804878004E40900087
:105060000080FB007A00B900F8004000F0C1200089
:1050700000804000104178004E4090008080FB008E
:10508000A0C1200000804000104078000040410096
:10509000104798001E409000EE4F5000020036006E
:1050A000F0C0B300104798004E4090000080FB0015
:1050B0000000E8007A00B900F8004000F0C12000CC
:1050C00000804000104178004E4090000080FB00BE
:1050D0008000E800A0C1200000804000104078005F
:1050E000004F4100E0C0B3009E4F100002003600A8
:1050F000F0C0B300004F78001E4090000080FB001D
:105100004400DD00804078001E40780000C0700040
:10511000204798004E4090000081FB004E409000D8
:105120000080FB007A00B900F8004000F0C12000C8
:105130000080400090407800A0C1200000004100A5
:10514000014878004E4090000080FB000001E8001C
:105150004E4090000080FB000000E8007A00B9009B
:10516000F8004000F0C1200000804000904078002E
:10517000A0C1200000004100014878004E4090008E
:105180000080FB007A00B900F8004000F0C1200068
:10519000808040000040EB00804878004E40900046
:1051A0000080FB000000E8007A00B900F800400031
:1051B000F0C12000808040000040EB008048780073
:1051C0002E4090000080FB00400798004E009000A9
:1051D0000080FA00000006000000FA004EC8BF0080
:1051E0000080FB00610060000080FA000000060003
:1051F0000000FA004EC8BF000080FB000000D10094
:105200000080FB00610060000080FA0000000600E2
:105210000000FA00200020000041880001812000E9
:1052200010002000F3040700200020000041880047
:105230002085200000428800800C20001042880059
:105240000000EB0020428800A0912000304288003E
:10525000800C2000404288000000EB005042880093
:105260000000EB006042880000982200C0408800E7
:105270000000EB00D04088001000200010418800A2
:105280000000EB00B04088000000EB00A040880068
:105290000000EB00904088000000EB008040880098
:1052A00050002000010020008041880091418800CA
:1052B0002003200001002000C0418800D141880067
:1052C000803E20000100200060418800714188007C
:1052D0000077210001002000E0418800F1418800B2
:1052E0000002EB0002102E000300200001812000CC
:1052F00010C0B300EA0407000080FA0000000600B6
:105300000C00FA00004F9800114F98000081200017
:10531000000F78006A0B070010079800210798001B
:105320001E00780060789000644060000004E00097
:10533000250032001E007800F00890006008900000
:10534000E00F5000E08F58001A0032001E00780075
:1053500040099000D00990001E009000AE0090001F
:1053600002015000838158001E007800F008900070
:1053700060089000800F5100818F59000D003900A6
:105380001E017800E2789000B0CFB30000C060004A
:10539000607998009E0078000000EB00A01898004B
:1053A0001E0078001E019000AE0190004208980097
:1053B000530898001E0078006078900064406000F8
:1053C0000004E000A9003A001E007800A018900038
:1053D0001E00780010189000808F500003003900E4
:1053E0009E0078000000EB00A01898001E007800D6
:1053F0009010900000109000E00F5000E08F5800D7
:10540000100032001E00780020099000B0099000C2
:105410001E009000AE0090000201500083815800F1
:105420001E0078009010900000109000800F510036
:10543000818F5900030039009E0078000000EB00C6
:10544000A01898001E0078001E019000AE01900088
:1054500022089800330898001E00780080189000F9
:105460001E00780020189000008040009E499000A7
:10547000034878001E007800201890008000E800A3
:105480001E007800211898001E0078002018900057
:10549000EA0F5000350036001E007800001890001A
:1054A00066004000104078000080FB00C800DD006E
:1054B0001E0078000018900067004000104078003F
:1054C0000080FB0000804000300798001E0078003C
:1054D000A01890003E0090006B004000808F5000AC
:1054E000620039001E007800801890003E00900095
:1054F000008040006800400010407800F04F5000ED
:1055000012003A001E007800801890003E009000C3
:10551000008040006900400010407800E34F5000D8
:105520000A003A009E007800617890000024A000F4
:10553000E07898001E0078001E019000AE019000F7
:105540004208980053089800480037001E00780071
:10555000001890009E499000034878009E00780053
:1055600010002000A0189800400037001E007800AE
:1055700020189000500798005E009000E40F500043
:105580000A003E00DE009000E38F5000370031003B
:105590005E019000E10F510008003200DE01900032
:1055A000E28F51000E003200300037005E009000A4
:1055B000E50F5000180032002C0037001E00780064
:1055C0000018900010407800F04F50002700320083
:1055D0009E0078000000EB00A01898002300370020
:1055E0001E007800001890000000E80010407800CD
:1055F000E24F50001D0032001E007800001890009D
:105600009E489000014878009E007800100020001D
:10561000A0189800150037001E00780000189000B0
:105620006400400090407800C0CCB30080CF5000B0
:105630000E0032001E007800001890006400400048
:1056400090407800D0CCB30080CF500007003200EB
:105650001E007800001890001E4990000248780053
:105660009E00780010002000A01898000080FA002A
:10567000000006001000FA0040079800510798004B
:105680006207980073079800D09E200020079800BA
:10569000AE00900000C1B300804878002E0090005A
:1056A0000000E80020079800AE00900020C0B30082
:1056B000804878002E0090000000E8002007980045
:1056C0004E009000A04090002E009000014878000D
:1056D0002E0090000000E800200798004E00900087
:1056E000C04090002E009000014878002E009000ED
:1056F0000000E80020079800AE00900080CCB300C6
:10570000804878002E0090000000E80020079800F4
:105710004E009000D04090002E009000014878008C
:105720002E0090000000E800200798006E00900016
:105730004880DE00804078002E009000014878000C
:105740002E0090000000E800200798006E009000F6
:10575000804078002E009000014878002E009000D4
:105760000000E800200798005E0090000000E000C4
:10577000160032005E009000100798000000EB0059
:10578000300798000D0037001E0090009040780010
:105790002E009000014878002E0090000000E800E4
:1057A000200798001E0090000000E80010079800F5
:1057B0003E0090000000E80030079800BE00900016
:1057C0006E009000808F5000EFFF3500AE0090001B
:1057D00000C1B300804878002E0090000000E8006F
:1057E00020079800AE00900030C0B30080487800D9
:1057F0002E0090000000E800200798002E00900086
:1058000080407800D09E200000C05000ECE9B70036
:10581000ECC9BF008080FB00D09E2000C70A0700B3
:105820000080FB00000F78001E00780080407800A8
:105830002E009000014878002E0090000000E80043
:10584000200798002E00900080407800D09E200015
:1058500000C05000ECE9B700ECC9BF000004E00054
:10586000120032007E0090000000E0000C003200C8
:105870005FFE07000000E00009003A00ECC9BF002D
:105880000081FB00E0408000F1408000D19E2000BC
:105890002602070030002000104F88000500370066
:1058A00010002000104F8800020037000000EB00BD
:1058B000104F8800ECC9BF000080FB000080FA0098
:1058C000000006007A00FA0000842000200F9800F3
:1058D0004EC8BF00684060000004E00006003200CF
:1058E0004E68A9004E48A900AE0890000000EB00E9
:1058F000A0009800910137004EC8BF0064406000CE
:105900000004E0008D0132002E08900010007800A5
:10591000600F98006E089000604090000080FB00CF
:10592000C800DD006E089000704090000080FB0011
:1059300000804000700F98002E08900090007800C2
:105940007E0890000080400068004000500F9800E2
:105950007E089000EA0040002E08900010007800B9
:10596000760A07000080FB00001798005E08900090
:10597000204090008080FB000E109000808F50002F
:105980006B013A004E08A8006E089000419E20006E
:1059900007000900B05878008000B100629E200026
:1059A0001241780021802000914078000000EB0037
:1059B000100F9800814F51000200320010002000AB
:1059C000100F9800E9C9BF000080FB00000F98008D
:1059D0001A070700E10F500003003A001B070700F9
:1059E000500E2000000F98000E089000403F9800D5
:1059F000500E2000CE389000808F50009000320072
:105A0000100F2000CE389000808F50009800320098
:105A10004E3890000000E0000100320044013700E1
:105A20002E0890001000780068004000300F9800A9
:105A3000F90607000000E000020032003E08900076
:105A4000EAF6070012F40700400F98009E08900045
:105A50000040EB0063FD0700804078004E08900096
:105A6000714898009E08900020C0B3005DFD0700BB
:105A7000804078004E08900001509800EA06070028
:105A8000604F98006E489000614060006140600087
:105A9000614060004E099000E1416000925090002A
:105AA000E0CFB30000C060000340700010519800C8
:105AB0004E09900092509000D0CFB30000C060001B
:105AC000105198004E09900092509000B0CFB30052
:105AD00000C06000105198000040EB00204F98007B
:105AE000600520000E004000600798004E099000FD
:105AF0002E4890000080FB008000780060052000A8
:105B00000E004000010040000400090032587800F7
:105B10005000B1005200B1002E4890006540400096
:105B2000204F98004E089000650140002E489000DC
:105B30000080FB0080007800600520000E0040001F
:105B40000100400004000900325878005000B10004
:105B50005200B1002E48900065404000204F980050
:105B60004E0890006A0140002E4890000080FB0023
:105B700080007800600520000E0040000100400019
:105B800004000900325878005000B1005200B10002
:105B90002E48900065404000204F98002E4890000D
:105BA0000081FB004E089000F04890006005200046
:105BB0000E00400000004100014878002E4890008F
:105BC0000040E800204F98002E4890000081FB0024
:105BD0004E08900080509000600520000E004000AC
:105BE00000004100014878002E4890000040E80085
:105BF000204F98002E4890000081FB004E08900036
:105C000090509000600520000E0040000000410010
:105C1000014878002E4890000040E800204F98008E
:105C20002E4890000081FB00610520008E8040001E
:105C300013002000409E20008EFE0700BC003700AD
:105C4000200220000E004000C40707004007980013
:105C500060CEB300E9E9B7001E119000CE009000BD
:105C60008001EB00409E200082FE0700B00037005C
:105C70007E0890000000E000AD0032002E08900089
:105C800010007800E8004000600320000E00400093
:105C90007E0990003FF20700600320000E004000E4
:105CA000104078000080FB00303F98000005200085
:105CB000BE389000808F5000050032001005200093
:105CC000BE389000808F50001C00320098003700D2
:105CD000400220000E0040008000EB001E0807007C
:105CE000600320000E00400030079800BE009000C6
:105CF00000C5B300804878003E0090000000E80036
:105D000030079800410220008E8040003E00900045
:105D100011000900315878002001B1002101B100C3
:105D2000610320008E80400013002000320120001B
:105D3000409E20004FFE07007D0037000040EB0032
:105D400040479800600320000E0040009040900003
:105D500050C5B30080CF500060003A0060032000BF
:105D60000E004000A0409000A0CAB30080CF5000B9
:105D70005A003A00600320000E00400030409000BE
:105D8000E14F400055003A007E089000E30F5000BC
:105D90005200360000C0EB00404798006000B80099
:105DA0006027980071279800EE2090007E209000D8
:105DB000ED090700002F9800112F98000E29900080
:105DC0009E2990000040200041002000800F5100DB
:105DD000818F59000300320010C0B3004047980083
:105DE0003E0037000040200001002000602798009E
:105DF00071279800EE2090007E209000DA090700BD
:105E0000002F9800112F98000E2990009E299000D5
:105E1000F0FF2F00F10F2000800F5100818F5900FB
:105E200003003A0020C0B300404798002B00370021
:105E30007E089000E40F5000280036006003200028
:105E40000E0040006400400030079800400520002C
:105E50000E00400041070700000F78002E28900038
:105E6000800078007E08900064005000808F500011
:105E7000030036007E08900064005000202F980038
:105E80000000EB0010079800100037003E00900063
:105E9000904078001E0078001040780080CF5000BD
:105EA0000300320030C0B300404798000B003700B9
:105EB0003E0090000000E800300798001E0FE80048
:105EC0001E0090000000E80010079800AE28900027
:105ED0001E009000810F5000ECFF35004E409000F6
:105EE000E14F400006003A0010002000004088000A
:105EF0007308070060408800714088000C0037007C
:105F0000600320000E004000CE4090003140980019
:105F10000000EB0000408800610320008E804000FC
:105F20001300200042002000409E2000D1FD070009
:105F30000000EB00204288004E48A9000080FA00D3
:105F4000000006000A00FA005EFE07000040800024
:105F5000E10F500010003A00590807000001BE0090
:105F60006040800071408000000151008181590033
:105F7000700C200001002000800F5100818F59001B
:105F8000050036000000EB00004088000000FE0025
:105F90000060FE00FEFF3700100020002301070014
:105FA0004708070020079800310798004EC8BF0037
:105FB000614060000004E00011003A0022408000CF
:105FC000334080002E009000BE009000020150007F
:105FD000838158007038210001002000800F51009B
:105FE000818F59000A0036002E009000BE009000FC
:105FF000204088003140880085FC070004003700FD
:106000002E009000BE0090002040880031408800A3
:106010003000200001002000008FBE00114F8000E2
:10602000410798004E009000E20F50001A00320025
:10603000CE009000E28F500007003E004E0090001E
:106040000000E00037003200CE009000E18F5000E9
:1060500008003200330037004E009000E30F50007C
:1060600021003200CE009000E48F50002B0032005F
:106070002C0037005EFC07000000E00029003A0019
:106080000F08070040408800514088002000200091
:10609000104F8800230037000908070042408000A5
:1060A000534080000200500083805800BE0F500013
:1060B000AE8F58001B003900ECC9BF000081FB0007
:1060C000E0408000F1408000D19E200017000700D2
:1060D00030002000104F8800F9070700404088007A
:1060E000514088000F00370041FC07000000E0002D
:1060F000070032004EC8BF00704060000004E0009E
:1061000008003200E0408000F14080008400070079
:1061100040002000104F8800020037000000EB0014
:10612000104F88000080FA00000006001200FA00FC
:106130005007980061079800720798000000EB0074
:10614000200798005E009000E40F50000300360026
:1061500020002000000F98006E0037005E009000C5
:106160008000400080CD200000804000100F7800AB
:106170001E00E00003003A003000200020079800D5
:106180000F0037001E0078006078900062406000C9
:106190000004E000030032004000200020079800C7
:1061A000070037001E007800C01890007E009000A5
:1061B000808F50000200310050002000200798001E
:1061C0002E0090000000E00050003A001E00780011
:1061D000100890000000E0000E003A001E00780059
:1061E000100090000000E000030032001E00780064
:1061F00010009000000001001E00780020009000B8
:106200000000E000030032001E0078002000900033
:10621000000001001E007800B018900031079800BF
:10622000BE0090006E009000808F5000140032007D
:106230000000EB00400798000D0037006E00900052
:10624000904078003E009000014878003E009000A9
:106250000000E800300798006E0090000000E800A1
:10626000600798004E0090000000E800400798008A
:10627000CE0090007E009000808F5000EFFF39002C
:106280007E0090000000E000200032009E007800B8
:106290000000EB00D01898007E0090008000E9001C
:1062A0001E007800611898009E00780061789000C8
:1062B0000014A000E0789800810707001E01780014
:1062C00020119800311198001E007800800890007D
:1062D0001107980087E0A9001E007800B018900010
:1062E0001E007800501990000200780000804000E5
:1062F000104078000080FB00A01188008200E800B8
:106300001E0078005118980097E0A8002E00900019
:10631000000F98000E0890000080FA0000000600B0
:106320000A00FA00300798003E009000E40F500089
:1063300003003600200020004007980022003700AC
:106340003E0090008000400080CD20000080400092
:10635000100F78001E00E00003003A00300020001B
:1063600020079800160037001E0078008008900073
:106370001107980097E0A90010002000200798005E
:106380009E0078000000EB00D01898009E00780076
:106390000000EB00E01898001E017800E278900001
:1063A000D0CFB30000C06000607998001E01780073
:1063B000E2789000F0CEB30000C0600060799800F1
:1063C0002E009000400798004E0090000080FA00D8
:1063D000000006000600FA00200798000000EB000D
:1063E000100798002E009000E40F50000C003E00B3
:1063F0002E0090008000400080CD200000804000F2
:10640000100F78001E00E000050032001E0078002A
:106410008000EB0021189800100020001007980061
:106420001E0090000080FA00000006000600FA003E
:10643000200798000000EB00100798002E00900045
:10644000E40F500045003E002E0090008000400008
:1064500080CD200000804000100F78001E00E0007A
:106460003E0032001E0078006078900061406000BD
:106470000004E00016003200110707000001BE0012
:106480001E007800D00890004008900000015100E4
:10649000818159001E007800F0109000601090007B
:1064A000800F5100818F5900090039001000200031
:1064B000100798001E017800E2789000E0CFB3004A
:1064C00000C06000607998002E00900094FF0700E3
:1064D0001E00780060789000624060000004E000D8
:1064E0001E0032001E017800E2789000F0CEB3006A
:1064F00000C06000607998001E007800D010900005
:1065000040109000E00F5000E08F58001300320060
:10651000EB0607000001BE001E007800B0109000DE
:106520002010900000015100818159001E00780068
:10653000D010900040109000800F5100818F5900C2
:10654000060039002E00900075FF07001E0078003D
:10655000E07890000144A000617898001E0090004F
:106560000080FA00000006000A00FA0030079800D8
:106570003E009000E40F5000030036002000200091
:1065800040079800180037003E009000800040004F
:1065900080CD200000804000100F78001E00E00039
:1065A00003003A0030002000200798000C0037005C
:1065B0001E00780080089000110798001E007800E7
:1065C000601890000000E00003003200400020004E
:1065D00020079800020037001000200020079800D4
:1065E0002E009000400798004E0090000080FA00B6
:1065F000000006000C00FA003007980041079800E0
:106600003E009000E40F5000030036001000200010
:10661000500798001F0037004E0090000000E00077
:106620001200320097C0A90097E0A9004E00900028
:10663000000F78000000EB001007980007003700FB
:106640009E0078000040EB00804878001E0FE800B4
:106650001E0090000000E800100798009E009000C7
:1066600010042000808F5000F5FF36003E0090009F
:106670008000400080CD2000808040000000EB00C2
:10668000800878000000EB00200798002E009000A2
:10669000500798005E0090000080FA00000006009D
:1066A0001200FA00604798004107980052079800CE
:1066B00063079800740798006E409000E44F500004
:1066C0000300360010002000000F98005E00370025
:1066D0000000EB0010079800170037001E00900024
:1066E0008000400080CD2000008040001000780035
:1066F0000000E0000D0032001E009000800040000D
:1067000080CD2000008040001000780080089000BC
:106710004E00900000089000808F500003003A0067
:1067200031002000010F9800470037001E00900044
:106730000000E800100798001E009000E40F5000D1
:10674000E6FF34006E4090000080FB000100200056
:106750004E01900060019800710198006E40900019
:106760000080FB008000400080CD200000804000C1
:10677000CE009000010878004E0090008008900044
:10678000210798002E009000E60F5000030036000D
:1067900020002000000F98002B0037004E009000D2
:1067A000100078000000E000030032004E0090006E
:1067B00010007800000001004E00900010089000CA
:1067C000E10F500007003A004E00900020009000BA
:1067D0000000E000030032004E0090002000900016
:1067E0000000010097C0A90097E0A90087C0A90098
:1067F00087E0A90012EF0700E00E200016EF070067
:106800005E019000EE01900000A0250021262000EE
:1068100050EF070065004000E0804800A200200023
:10682000030020004BEF0700000FE9001E01780075
:10683000014028008000280033EF070097C0A8001F
:106840008000EB00010F98000E0890000080FA0015
:10685000000006000000FA008011800001002800FE
:1068600001007000801188000080FA00000006001E
:106870003600F800809FBE00829FBE00849FBE004D
:10688000869FBE003400F80000002000A0018800B0
:106890000400FA000000EB001007980087E0A90050
:1068A0000000EB00000F7800170037001E00780092
:1068B0008000400080CD2000008040001000780063
:1068C0000000E0000F0032001E0078008000400051
:1068D00080CD20000080400010007800000890006B
:1068E000E20F500007003A001E00780080004000D0
:1068F00080CD2000008040009000780011079800B3
:10690000040037001E0FE800400020009E0F10001A
:10691000E6FF34001E0090000000E0003E00320060
:1069200087E0A9001E009000601890000000E000C1
:10693000160032009E009000617890000014A000C4
:10694000E07898001E009000B01890001E009000A3
:106950005018900000804000104078000080FB003C
:10696000A01188001E009000501890008000E800E0
:106970001E009000511898001E00900060189000B2
:106980008000E9001E009000611898001E00900031
:10699000601890000000E0001F003A0097E0A90096
:1069A0001E009000500090000000E0000300320044
:1069B0001E00900050009000000001001E01900099
:1069C000E2789000D0CFB30000C0600060799800FA
:1069D0001E009000100890000000E0000E003A0039
:1069E0001E009000300090000000E0000300320024
:1069F0001E00900030009000000001001E0090007A
:106A0000100078000000E000030032001E0090003B
:106A100010007800000001000080FA003400F90046
:106A20004F03BE004F02BE004F01BE004F00BE002C
:106A30003600F900004006003600F800809FBE00D6
:106A4000829FBE00849FBE00869FBE003400F80077
:106A500000002000A00188000A00FA0087C0A900F9
:106A60000000EB00100798000000EB00000F78001A
:106A7000170037001E0078008000400080CD200005
:106A800000804000100078000000E0000F0032009D
:106A90001E0078008000400080CD20000080400073
:106AA0001000780000089000E20F500007003A0044
:106AB0001E0078008000400080CD20000080400053
:106AC0009000780011079800040037001E0FE800BE
:106AD000420020009E0F1100E6FF34001E009000CF
:106AE0000000E00039003A000200370090EE070095
:106AF0004047980081EE07000004E000FBFF3A00E9
:106B0000350037008AEE0700404798006C05070003
:106B100030079800410798001E009000A0189000D0
:106B20001E00900010189000808F50000300390064
:106B30009E0090000000EB00A01898001E0090003E
:106B4000400090000000E0001B0032001E0090009A
:106B50009010900000109000E00F5000E08F58005F
:106B6000100032001E00900020099000B009900033
:106B70003E009000CE00900002015000838158003A
:106B80001E0090009010900000109000800F5100A7
:106B9000818F5900030039009E0090000000EB0037
:106BA000A01898001E00900040019000CE40900078
:106BB00020C0B300020001001E0090003E019000C2
:106BC000CE01900022089800330898004BEE070091
:106BD0000004E000CBFF3A000080FA003400F90026
:106BE0004F03BE004F02BE004F01BE004F00BE006B
:106BF0003600F900004006000400FA002047980023
:106C00000040EB00004F7800020037000000000059
:106C10001E4FE8002E4090009E4F1000FBFF3900F1
:106C20000080FA00000006000000FA00E4CCBF007B
:106C30000080FB000080FA00000006000000FA005F
:106C40000040EB00E4ECB7000080FA000000060012
:106C50000600FA00004F78001207980023079800FA
:106C60000000EB00301088000000EB0040108800AE
:106C70007BED07000000EB007FED0700F104200032
:106C800000002800C5ED070020C3B300DAFF0700AD
:106C90000080FA00000006002000FA00404798003B
:106CA000514798006247980043079800540798009E
:106CB000E40CA9009CED0700BDED07000000EB000F
:106CC00030678800100020004067880013003700FC
:106CD00030678000700F98008040EB00415F9800A3
:106CE000401F2000FE089000808F500002003400FA
:106CF00010C0B300405F9800FE0890000100E8005B
:106D0000306788004E5890000004E0000300320015
:106D10000000EB00406788000400370006C2BF0097
:106D2000614060000004E000E9FF3A008620A9000D
:106D3000406780000000E00002003A00E40CA80078
:106D4000BC0037005E4090000080FB0067006000E0
:106D5000000040008040780000C4B30000C0700014
:106D600084ED07000000EB00306788001000200071
:106D7000406788001300370031678000510F98008A
:106D80000040EB00005F9800401F2000DE089000EC
:106D9000808F50000200340010C0B300005F9800E4
:106DA000DE0890000100E800306788000E5890006F
:106DB0000004E000030032000000EB0040678800A0
:106DC0000400370008C2BF00614060000004E0001A
:106DD000E9FF3A00406780000000E00002003A004E
:106DE000E40CA800930037000000EB003067880037
:106DF00010002000406788001300370031678000D2
:106E0000310F98000040EB0040579800401F2000D1
:106E1000BE089000808F50000200340010C0B30004
:106E200040579800BE0890000100E80030678800D5
:106E30004E5090000004E000030032000000EB0020
:106E4000406788000400370086C0BF0062406000D1
:106E50000004E000E9FF32008620A90040678000BE
:106E60000000E00002003A00E40CA80071003700C6
:106E70000000EB00306788001000200040678800A9
:106E80001300370031678000110F98000040EB00BD
:106E900000579800800C20009E089000808F5000C2
:106EA0000200340010C0B300005798009E08900004
:106EB0000100E800306788000E5090000004E000F8
:106EC000030032000000EB00406788000500370037
:106ED00009C2BF0001C8B300014060000004E00027
:106EE000E8FF3A00406780000000E00002003A003E
:106EF000E40CA8004F0037000000EB0010079800DA
:106F0000030037001E0090000000E8001007980002
:106F10009E009000703E2000808F5000F9FF3400EA
:106F2000EE40900000C8B30000C0700011ED0700F3
:106F3000004F78001E04E00002003200E40CA800BC
:106F40003C003700F8EC07000040EB00004F7800F1
:106F50000000EB00100798002F0037004E00900053
:106F60001040780003ED0700004F780080C0EB0070
:106F70009ECF10002C0032000000EB00306788002C
:106F80001000200040678800130037003067800041
:106F9000700798008040EB00414F9800401F200090
:106FA000FE009000808F50000200340010C0B3003B
:106FB000404F9800FE0090000100E8003067880014
:106FC0004E4890000004E000030032000000EB0097
:106FD000406788000400370008C2BF0061406000BD
:106FE0000004E000E9FF3A00406780000000E00094
:106FF00002003A00E40CA8000B003700CAEC0700BE
:107000004E0090000000E800400798001E0090002D
:107010000000E800100798009E0090005E009000BD
:10702000808F5000CDFF39001E04E00001003200C7
:10703000E40CA800BCEC0700DFEC0700E4CCBF00C8
:107040000004A2000080FB00610060000080FA00E4
:10705000000006000400FA00004F78001147980075
:10706000224798003347980063004700140020002F
:10707000800178002E4190009E4090001E407800D4
:1070800005FF07000080FB000080FA0000000600FA
:107090002800FA002047980031479800424798009E
:1070A00033079800044F9800E42CA9009EEC0700D9
:1070B000BFEC07000000EB003067880010002000E4
:1070C0004067880013003700306780003017980051
:1070D0008040EB0041679800401F2000BE109000E8
:1070E000808F50000200340010C0B3004067980049
:1070F000BE1090000100E800306788004E609000EC
:107100000004E000030032000000EB00406788004C
:107110000400370006C2BF00614060000004E000C8
:10712000E9FF3A008620A900406780000000E000E7
:1071300002003A00E42CA800210137003E409000F4
:107140000080FB0067006000000040008040780085
:1071500000C4B30000C0700086EC07000000EB0024
:107160003067880010002000406788001300370057
:1071700031678000111798000040EB00006798000D
:10718000401F20009E109000808F500002003400AD
:1071900010C0B300006798009E1090000100E80046
:1071A000306788000E6090000004E00003003200A9
:1071B0000000EB00406788000400370008C2BF00F1
:1071C000614060000004E000E9FF3A004067800091
:1071D0000000E00002003A00E42CA800F8003700AC
:1071E0000000EB0030678800100020004067880036
:1071F0001300370031678000710F98000040EB00EA
:10720000405F9800401F2000FE089000808F5000D3
:107210000200340010C0B300405F9800FE089000E8
:107220000100E800306788004E5890000004E0003C
:10723000030032000000EB004067880004003700C4
:1072400086C0BF00624060000004E000E9FF320039
:107250008620A900406780000000E00002003A009C
:10726000E42CA800D60037000000EB00306788004F
:10727000100020004067880013003700316780004D
:10728000510F98000040EB00005F9800800C200038
:10729000DE089000808F50000200340010C0B30060
:1072A000005F9800DE0890000100E8003067880069
:1072B0000E5890000004E000030032000000EB00D4
:1072C000406788000500370009C2BF0001C8B3004D
:1072D000014060000004E000E8FF3A0040678000E1
:1072E0000000E00002003A00E42CA800B4003700DF
:1072F000CE40900000C8B30000C070001DEC070035
:10730000004F78001E04E00002003200E42CA800C8
:10731000AB00370004EC070023EC07000000EB0093
:107320003067880010002000406788001300370095
:1073300031678000310F98000040EB004057980003
:10734000401F2000BE089000808F500002003400D3
:1073500010C0B30040579800BE0890000100E8003C
:10736000306788004E5090000004E00003003200B7
:107370000000EB00406788000400370006C2BF0031
:10738000624060000004E000E9FF3A0040678000CE
:107390000000E00002003A00E42CA800880037005A
:1073A0008620A9003E4090000080FB00670060003E
:1073B000000040008040780010C4B30000C070009E
:1073C000ECEB07000000EB003067880010002000A5
:1073D000406788001300370031678000110F980064
:1073E0000040EB0000579800401F20009E089000CE
:1073F000808F50000200340010C0B3000057980086
:107400009E0890000100E800306788000E50900050
:107410000004E000030032000000EB004067880039
:107420000400370086C0BF00624060000004E00036
:10743000E9FF3200406780000000E00002003A00EF
:10744000E42CA8005E0037000000EB0030678800E5
:10745000100020004067880013003700316780006B
:10746000710798000040EB00404F9800800C20000E
:10747000FE009000808F50000200340010C0B30066
:10748000404F9800FE0090000100E800306788003F
:107490004E4890000004E000030032000000EB00C2
:1074A000406788000500370009C2BF0001C8B3006B
:1074B000014060000004E000E8FF3A0040678000FF
:1074C0000000E00002003A00E42CA8003C00370075
:1074D0008620A900370037000662A8000000EB00F4
:1074E00030678800100020004067880013003700D4
:1074F00031678000510798000040EB00104F980062
:10750000800C2000DE009000808F500002003400CC
:1075100010C0B300104F9800DE0090000100E8009A
:10752000306788001E4890000004E000030032002D
:107530000000EB00406788000300370076EB07008F
:107540000004E000EAFF3200406780000000E00035
:1075500002003A00E42CA800190037000010800057
:10756000804078003E009000014878003E00900086
:107570000000E800300798000E4890000040E90045
:10758000004F98000E4890000004E00003003A000D
:1075900006A2A8000682A8000200370006A2A900E1
:1075A0000682A80006C2BF00704060000004E00030
:1075B000FCFF3A000E4890000004E000C6FF3A00CD
:1075C000E4CCBF000080FB000000D1000004A2005A
:1075D0000080FB00610060000080FA0000000600EF
:1075E0000600FA00004F78001147980022479800E3
:1075F0002307980014C0B300AE0190002E41900004
:107600009E4090001E407800A1FE07000080FB0015
:107610000080FA00000006000000FA0020658000EB
:107620000080FA00000006000000FA00A6CCBF00AF
:107630000080FB000080FA00000006000000FA0055
:10764000406580000080FA00000006000000FA009B
:107650000000EB00406588000080FA000000060092
:107660000000FA0088CCBF000080FB000080FA0018
:10767000000006001600FA000000000000000000F4
:1076800000000000FF3FFC0040C7BF000080FB007F
:107690004400DE00614060000080FB00C06588009F
:1076A0004087A900E203070061168000F0FB2F006D
:1076B000008060006016880002A82100630020009E
:1076C0000040EB0062FD0700D1F6070032ED070035
:1076D000F7EC070011ED07001AF607000404070095
